{
  "contractName": "CanBehaveDifferently",
  "abi": [
    {
      "inputs": [
        {
          "internalType": "address",
          "name": "_doSomething",
          "type": "address"
        }
      ],
      "stateMutability": "nonpayable",
      "type": "constructor"
    },
    {
      "inputs": [],
      "name": "something",
      "outputs": [
        {
          "internalType": "uint256",
          "name": "",
          "type": "uint256"
        }
      ],
      "stateMutability": "view",
      "type": "function",
      "constant": true
    },
    {
      "inputs": [],
      "name": "somethingElse",
      "outputs": [
        {
          "internalType": "uint256",
          "name": "",
          "type": "uint256"
        }
      ],
      "stateMutability": "view",
      "type": "function",
      "constant": true
    },
    {
      "inputs": [],
      "name": "behave",
      "outputs": [],
      "stateMutability": "nonpayable",
      "type": "function"
    },
    {
      "inputs": [
        {
          "internalType": "address",
          "name": "_doSomething",
          "type": "address"
        }
      ],
      "name": "setIDoSomethingImpl",
      "outputs": [],
      "stateMutability": "nonpayable",
      "type": "function"
    }
  ],
  "bytecode": "0x608060405234801561001057600080fd5b506040516104aa3803806104aa833981810160405281019061003291906100ed565b6100418161004760201b60201c565b5061011a565b806000806101000a81548173ffffffffffffffffffffffffffffffffffffffff021916908373ffffffffffffffffffffffffffffffffffffffff16021790555050565b600080fd5b600073ffffffffffffffffffffffffffffffffffffffff82169050919050565b60006100ba8261008f565b9050919050565b6100ca816100af565b81146100d557600080fd5b50565b6000815190506100e7816100c1565b92915050565b6000602082840312156101035761010261008a565b5b6000610111848285016100d8565b91505092915050565b610381806101296000396000f3fe608060405234801561001057600080fd5b506004361061004c5760003560e01c806342d2f14514610051578063462285271461005b578063a7a0d53714610077578063edcceda314610095575b600080fd5b6100596100b3565b005b61007560048036038101906100709190610291565b6101df565b005b61007f610222565b60405161008c91906102d7565b60405180910390f35b61009d610228565b6040516100aa91906102d7565b60405180910390f35b60008054906101000a900473ffffffffffffffffffffffffffffffffffffffff1673ffffffffffffffffffffffffffffffffffffffff1663826926796040518163ffffffff1660e01b8152600401602060405180830381865afa15801561011e573d6000803e3d6000fd5b505050506040513d601f19601f82011682018060405250810190610142919061031e565b60018190555060008054906101000a900473ffffffffffffffffffffffffffffffffffffffff1673ffffffffffffffffffffffffffffffffffffffff166354fc2cb26040518163ffffffff1660e01b8152600401602060405180830381865afa1580156101b3573d6000803e3d6000fd5b505050506040513d601f19601f820116820180604052508101906101d7919061031e565b600281905550565b806000806101000a81548173ffffffffffffffffffffffffffffffffffffffff021916908373ffffffffffffffffffffffffffffffffffffffff16021790555050565b60015481565b60025481565b600080fd5b600073ffffffffffffffffffffffffffffffffffffffff82169050919050565b600061025e82610233565b9050919050565b61026e81610253565b811461027957600080fd5b50565b60008135905061028b81610265565b92915050565b6000602082840312156102a7576102a661022e565b5b60006102b58482850161027c565b91505092915050565b6000819050919050565b6102d1816102be565b82525050565b60006020820190506102ec60008301846102c8565b92915050565b6102fb816102be565b811461030657600080fd5b50565b600081519050610318816102f2565b92915050565b6000602082840312156103345761033361022e565b5b600061034284828501610309565b9150509291505056fea26469706673582212200df1f5823749cf3c9dcafce1ad2fa859d016e9c14e83481c674001974b051e8764736f6c634300080e0033",
  "immutableReferences": {},
  "source": "// SPDX-License-Identifier: MIT\npragma solidity >=0.4.22 <0.9.0;\n\nimport \"./IDoSomething.sol\";\nimport \"./DoNothing.sol\";\n\ncontract CanBehaveDifferently {\n    IDoSomething private doSomething;\n\n    uint public something;\n    uint public somethingElse;\n\n    constructor(address _doSomething){\n        setIDoSomethingImpl(_doSomething);\n    }\n\n    function behave() public {\n        something = doSomething.doSomething();\n        somethingElse = doSomething.doSomethingElse();\n    }\n\n    function setIDoSomethingImpl(address _doSomething) public {\n        doSomething = IDoSomething(_doSomething);\n    }\n\n}\n",
  "sourcePath": "/Users/opicaud/dev/blockchain/interface/contracts/CanBehaveDifferently.sol",
  "compiler": {
    "name": "solc",
    "version": "0.8.14+commit.80d49f37.Emscripten.clang"
  },
  "schemaVersion": "3.4.7",
  "updatedAt": "2022-07-27T20:35:42.084Z",
  "networkType": "ethereum",
  "devdoc": {
    "kind": "dev",
    "methods": {},
    "version": 1
  },
  "userdoc": {
    "kind": "user",
    "methods": {},
    "version": 1
  }
}