{
  "contractName": "DoNothing",
  "abi": [
    {
      "inputs": [],
      "name": "doSomething",
      "outputs": [
        {
          "internalType": "uint256",
          "name": "",
          "type": "uint256"
        }
      ],
      "stateMutability": "pure",
      "type": "function",
      "constant": true
    },
    {
      "inputs": [],
      "name": "doSomethingElse",
      "outputs": [
        {
          "internalType": "uint256",
          "name": "",
          "type": "uint256"
        }
      ],
      "stateMutability": "pure",
      "type": "function",
      "constant": true
    }
  ],
  "bytecode": "0x608060405234801561001057600080fd5b5060db8061001f6000396000f3fe6080604052348015600f57600080fd5b506004361060325760003560e01c806354fc2cb214603757806382692679146051575b600080fd5b603d606b565b60405160489190608c565b60405180910390f35b60576070565b60405160629190608c565b60405180910390f35b600090565b600090565b6000819050919050565b6086816075565b82525050565b6000602082019050609f6000830184607f565b9291505056fea264697066735822122067d2975576e047e2ebe6fdbbb3b28ae699aaae7127ede8bfcda96db63c8df56964736f6c634300080e0033",
  "immutableReferences": {},
  "source": "// SPDX-License-Identifier: MIT\npragma solidity >=0.4.22 <0.9.0;\n\nimport \"./IDoSomething.sol\";\n\ncontract DoNothing is IDoSomething {\n\n  function doSomething() external pure returns (uint) {\n    return 0;\n  }\n  function doSomethingElse() external pure returns (uint) {\n    return 0;\n  }\n}\n",
  "sourcePath": "/Users/opicaud/dev/blockchain/interface/contracts/DoNothing.sol",
  "compiler": {
    "name": "solc",
    "version": "0.8.14+commit.80d49f37.Emscripten.clang"
  },
  "schemaVersion": "3.4.7",
  "updatedAt": "2022-07-27T20:35:42.087Z",
  "networkType": "ethereum",
  "devdoc": {
    "kind": "dev",
    "methods": {},
    "version": 1
  },
  "userdoc": {
    "kind": "user",
    "methods": {},
    "version": 1
  }
}