{
  "contractName": "DoSomething",
  "abi": [
    {
      "inputs": [],
      "name": "doSomething",
      "outputs": [
        {
          "internalType": "uint256",
          "name": "",
          "type": "uint256"
        }
      ],
      "stateMutability": "pure",
      "type": "function",
      "constant": true
    },
    {
      "inputs": [],
      "name": "doSomethingElse",
      "outputs": [
        {
          "internalType": "uint256",
          "name": "",
          "type": "uint256"
        }
      ],
      "stateMutability": "pure",
      "type": "function",
      "constant": true
    }
  ],
  "bytecode": "0x608060405234801561001057600080fd5b5060e38061001f6000396000f3fe6080604052348015600f57600080fd5b506004361060325760003560e01c806354fc2cb214603757806382692679146051575b600080fd5b603d606b565b604051604891906094565b60405180910390f35b60576074565b604051606291906094565b60405180910390f35b6000600a905090565b60006014905090565b6000819050919050565b608e81607d565b82525050565b600060208201905060a760008301846087565b9291505056fea2646970667358221220dfcc8032d0a0fbe481cd79bda0f13b7b22b47165f5d1e370dcc86e40a0ab3cc964736f6c634300080e0033",
  "immutableReferences": {},
  "source": "// SPDX-License-Identifier: MIT\npragma solidity >=0.4.22 <0.9.0;\n\nimport \"./IDoSomething.sol\";\n\ncontract DoSomething is IDoSomething {\n\n  function doSomething() external pure returns (uint) {\n    return 20;\n  }\n  function doSomethingElse() external pure returns (uint) {\n    return 10;\n  }\n}\n",
  "sourcePath": "/Users/opicaud/dev/blockchain/interface/contracts/DoSomething.sol",
  "compiler": {
    "name": "solc",
    "version": "0.8.14+commit.80d49f37.Emscripten.clang"
  },
  "schemaVersion": "3.4.7",
  "updatedAt": "2022-07-27T20:35:42.600Z",
  "networkType": "ethereum",
  "devdoc": {
    "kind": "dev",
    "methods": {},
    "version": 1
  },
  "userdoc": {
    "kind": "user",
    "methods": {},
    "version": 1
  }
}