{
  "contractName": "SimpleProxyV2",
  "abi": [
    {
      "anonymous": false,
      "inputs": [
        {
          "indexed": false,
          "internalType": "address",
          "name": "previousAdmin",
          "type": "address"
        },
        {
          "indexed": false,
          "internalType": "address",
          "name": "newAdmin",
          "type": "address"
        }
      ],
      "name": "AdminChanged",
      "type": "event"
    },
    {
      "anonymous": false,
      "inputs": [
        {
          "indexed": true,
          "internalType": "address",
          "name": "beacon",
          "type": "address"
        }
      ],
      "name": "BeaconUpgraded",
      "type": "event"
    },
    {
      "anonymous": false,
      "inputs": [
        {
          "indexed": false,
          "internalType": "uint8",
          "name": "version",
          "type": "uint8"
        }
      ],
      "name": "Initialized",
      "type": "event"
    },
    {
      "anonymous": false,
      "inputs": [
        {
          "indexed": true,
          "internalType": "address",
          "name": "previousOwner",
          "type": "address"
        },
        {
          "indexed": true,
          "internalType": "address",
          "name": "newOwner",
          "type": "address"
        }
      ],
      "name": "OwnershipTransferred",
      "type": "event"
    },
    {
      "anonymous": false,
      "inputs": [
        {
          "indexed": true,
          "internalType": "address",
          "name": "implementation",
          "type": "address"
        }
      ],
      "name": "Upgraded",
      "type": "event"
    },
    {
      "inputs": [],
      "name": "owner",
      "outputs": [
        {
          "internalType": "address",
          "name": "",
          "type": "address"
        }
      ],
      "stateMutability": "view",
      "type": "function",
      "constant": true
    },
    {
      "inputs": [],
      "name": "proxiableUUID",
      "outputs": [
        {
          "internalType": "bytes32",
          "name": "",
          "type": "bytes32"
        }
      ],
      "stateMutability": "view",
      "type": "function",
      "constant": true
    },
    {
      "inputs": [],
      "name": "renounceOwnership",
      "outputs": [],
      "stateMutability": "nonpayable",
      "type": "function"
    },
    {
      "inputs": [],
      "name": "something",
      "outputs": [
        {
          "internalType": "uint256",
          "name": "",
          "type": "uint256"
        }
      ],
      "stateMutability": "view",
      "type": "function",
      "constant": true
    },
    {
      "inputs": [],
      "name": "somethingElse",
      "outputs": [
        {
          "internalType": "uint256",
          "name": "",
          "type": "uint256"
        }
      ],
      "stateMutability": "view",
      "type": "function",
      "constant": true
    },
    {
      "inputs": [
        {
          "internalType": "address",
          "name": "newOwner",
          "type": "address"
        }
      ],
      "name": "transferOwnership",
      "outputs": [],
      "stateMutability": "nonpayable",
      "type": "function"
    },
    {
      "inputs": [
        {
          "internalType": "address",
          "name": "newImplementation",
          "type": "address"
        }
      ],
      "name": "upgradeTo",
      "outputs": [],
      "stateMutability": "nonpayable",
      "type": "function"
    },
    {
      "inputs": [
        {
          "internalType": "address",
          "name": "newImplementation",
          "type": "address"
        },
        {
          "internalType": "bytes",
          "name": "data",
          "type": "bytes"
        }
      ],
      "name": "upgradeToAndCall",
      "outputs": [],
      "stateMutability": "payable",
      "type": "function",
      "payable": true
    },
    {
      "inputs": [
        {
          "internalType": "uint256",
          "name": "_something",
          "type": "uint256"
        }
      ],
      "name": "initialize",
      "outputs": [],
      "stateMutability": "nonpayable",
      "type": "function"
    },
    {
      "inputs": [],
      "name": "setVariables",
      "outputs": [],
      "stateMutability": "nonpayable",
      "type": "function"
    }
  ],
  "bytecode": "0x60a06040523073ffffffffffffffffffffffffffffffffffffffff1660809073ffffffffffffffffffffffffffffffffffffffff1681525034801561004357600080fd5b506080516119a461007b60003960008181610213015281816102a10152818161039b0152818161042901526104d901526119a46000f3fe6080604052600436106100915760003560e01c80638da5cb5b116100595780638da5cb5b14610134578063a7a0d5371461015f578063edcceda31461018a578063f2fde38b146101b5578063fe4b84df146101de57610091565b80630747b25a146100965780633659cfe6146100ad5780634f1ef286146100d657806352d1902d146100f2578063715018a61461011d575b600080fd5b3480156100a257600080fd5b506100ab610207565b005b3480156100b957600080fd5b506100d460048036038101906100cf9190610e9f565b610211565b005b6100f060048036038101906100eb9190611012565b610399565b005b3480156100fe57600080fd5b506101076104d5565b6040516101149190611087565b60405180910390f35b34801561012957600080fd5b5061013261058e565b005b34801561014057600080fd5b506101496105a2565b60405161015691906110b1565b60405180910390f35b34801561016b57600080fd5b506101746105cc565b60405161018191906110e5565b60405180910390f35b34801561019657600080fd5b5061019f6105d2565b6040516101ac91906110e5565b60405180910390f35b3480156101c157600080fd5b506101dc60048036038101906101d79190610e9f565b6105d8565b005b3480156101ea57600080fd5b506102056004803603810190610200919061112c565b61065b565b005b605660ca81905550565b7f000000000000000000000000000000000000000000000000000000000000000073ffffffffffffffffffffffffffffffffffffffff163073ffffffffffffffffffffffffffffffffffffffff160361029f576040517f08c379a0000000000000000000000000000000000000000000000000000000008152600401610296906111dc565b60405180910390fd5b7f000000000000000000000000000000000000000000000000000000000000000073ffffffffffffffffffffffffffffffffffffffff166102de6107a1565b73ffffffffffffffffffffffffffffffffffffffff1614610334576040517f08c379a000000000000000000000000000000000000000000000000000000000815260040161032b9061126e565b60405180910390fd5b61033d816107f8565b61039681600067ffffffffffffffff81111561035c5761035b610ee7565b5b6040519080825280601f01601f19166020018201604052801561038e5781602001600182028036833780820191505090505b506000610803565b50565b7f000000000000000000000000000000000000000000000000000000000000000073ffffffffffffffffffffffffffffffffffffffff163073ffffffffffffffffffffffffffffffffffffffff1603610427576040517f08c379a000000000000000000000000000000000000000000000000000000000815260040161041e906111dc565b60405180910390fd5b7f000000000000000000000000000000000000000000000000000000000000000073ffffffffffffffffffffffffffffffffffffffff166104666107a1565b73ffffffffffffffffffffffffffffffffffffffff16146104bc576040517f08c379a00000000000000000000000000000000000000000000000000000000081526004016104b39061126e565b60405180910390fd5b6104c5826107f8565b6104d182826001610803565b5050565b60007f000000000000000000000000000000000000000000000000000000000000000073ffffffffffffffffffffffffffffffffffffffff163073ffffffffffffffffffffffffffffffffffffffff1614610565576040517f08c379a000000000000000000000000000000000000000000000000000000000815260040161055c90611300565b60405180910390fd5b7f360894a13ba1a3210667c828492db98dca3e2076cc3735a920a3ca505d382bbc60001b905090565b610596610971565b6105a060006109ef565b565b6000609760009054906101000a900473ffffffffffffffffffffffffffffffffffffffff16905090565b60c95481565b60ca5481565b6105e0610971565b600073ffffffffffffffffffffffffffffffffffffffff168173ffffffffffffffffffffffffffffffffffffffff160361064f576040517f08c379a000000000000000000000000000000000000000000000000000000000815260040161064690611392565b60405180910390fd5b610658816109ef565b50565b60008060019054906101000a900460ff1615905080801561068c5750600160008054906101000a900460ff1660ff16105b806106b9575061069b30610ab5565b1580156106b85750600160008054906101000a900460ff1660ff16145b5b6106f8576040517f08c379a00000000000000000000000000000000000000000000000000000000081526004016106ef90611424565b60405180910390fd5b60016000806101000a81548160ff021916908360ff1602179055508015610735576001600060016101000a81548160ff0219169083151502179055505b8160c981905550610744610ad8565b801561079d5760008060016101000a81548160ff0219169083151502179055507f7f26b83ff96e1f2b6a682f133852f6798a09c465da95921460cefb384740249860016040516107949190611496565b60405180910390a15b5050565b60006107cf7f360894a13ba1a3210667c828492db98dca3e2076cc3735a920a3ca505d382bbc60001b610b31565b60000160009054906101000a900473ffffffffffffffffffffffffffffffffffffffff16905090565b610800610971565b50565b61082f7f4910fdfa16fed3260ed0e7147f7cc6da11a60208b5b9406d12a635614ffd914360001b610b3b565b60000160009054906101000a900460ff16156108535761084e83610b45565b61096c565b8273ffffffffffffffffffffffffffffffffffffffff166352d1902d6040518163ffffffff1660e01b8152600401602060405180830381865afa9250505080156108bb57506040513d601f19601f820116820180604052508101906108b891906114dd565b60015b6108fa576040517f08c379a00000000000000000000000000000000000000000000000000000000081526004016108f19061157c565b60405180910390fd5b7f360894a13ba1a3210667c828492db98dca3e2076cc3735a920a3ca505d382bbc60001b811461095f576040517f08c379a00000000000000000000000000000000000000000000000000000000081526004016109569061160e565b60405180910390fd5b5061096b838383610bfe565b5b505050565b610979610c2a565b73ffffffffffffffffffffffffffffffffffffffff166109976105a2565b73ffffffffffffffffffffffffffffffffffffffff16146109ed576040517f08c379a00000000000000000000000000000000000000000000000000000000081526004016109e49061167a565b60405180910390fd5b565b6000609760009054906101000a900473ffffffffffffffffffffffffffffffffffffffff16905081609760006101000a81548173ffffffffffffffffffffffffffffffffffffffff021916908373ffffffffffffffffffffffffffffffffffffffff1602179055508173ffffffffffffffffffffffffffffffffffffffff168173ffffffffffffffffffffffffffffffffffffffff167f8be0079c531659141344cd1fd0a4f28419497f9722a3daafe3b4186f6b6457e060405160405180910390a35050565b6000808273ffffffffffffffffffffffffffffffffffffffff163b119050919050565b600060019054906101000a900460ff16610b27576040517f08c379a0000000000000000000000000000000000000000000000000000000008152600401610b1e9061170c565b60405180910390fd5b610b2f610c32565b565b6000819050919050565b6000819050919050565b610b4e81610ab5565b610b8d576040517f08c379a0000000000000000000000000000000000000000000000000000000008152600401610b849061179e565b60405180910390fd5b80610bba7f360894a13ba1a3210667c828492db98dca3e2076cc3735a920a3ca505d382bbc60001b610b31565b60000160006101000a81548173ffffffffffffffffffffffffffffffffffffffff021916908373ffffffffffffffffffffffffffffffffffffffff16021790555050565b610c0783610c93565b600082511180610c145750805b15610c2557610c238383610ce2565b505b505050565b600033905090565b600060019054906101000a900460ff16610c81576040517f08c379a0000000000000000000000000000000000000000000000000000000008152600401610c789061170c565b60405180910390fd5b610c91610c8c610c2a565b6109ef565b565b610c9c81610b45565b8073ffffffffffffffffffffffffffffffffffffffff167fbc7cd75a20ee27fd9adebab32041f755214dbc6bffa90cc0225b39da2e5c2d3b60405160405180910390a250565b6060610ced83610ab5565b610d2c576040517f08c379a0000000000000000000000000000000000000000000000000000000008152600401610d2390611830565b60405180910390fd5b6000808473ffffffffffffffffffffffffffffffffffffffff1684604051610d5491906118ca565b600060405180830381855af49150503d8060008114610d8f576040519150601f19603f3d011682016040523d82523d6000602084013e610d94565b606091505b5091509150610dbc828260405180606001604052806027815260200161194860279139610dc6565b9250505092915050565b60608315610dd657829050610e26565b600083511115610de95782518084602001fd5b816040517f08c379a0000000000000000000000000000000000000000000000000000000008152600401610e1d9190611925565b60405180910390fd5b9392505050565b6000604051905090565b600080fd5b600080fd5b600073ffffffffffffffffffffffffffffffffffffffff82169050919050565b6000610e6c82610e41565b9050919050565b610e7c81610e61565b8114610e8757600080fd5b50565b600081359050610e9981610e73565b92915050565b600060208284031215610eb557610eb4610e37565b5b6000610ec384828501610e8a565b91505092915050565b600080fd5b600080fd5b6000601f19601f8301169050919050565b7f4e487b7100000000000000000000000000000000000000000000000000000000600052604160045260246000fd5b610f1f82610ed6565b810181811067ffffffffffffffff82111715610f3e57610f3d610ee7565b5b80604052505050565b6000610f51610e2d565b9050610f5d8282610f16565b919050565b600067ffffffffffffffff821115610f7d57610f7c610ee7565b5b610f8682610ed6565b9050602081019050919050565b82818337600083830152505050565b6000610fb5610fb084610f62565b610f47565b905082815260208101848484011115610fd157610fd0610ed1565b5b610fdc848285610f93565b509392505050565b600082601f830112610ff957610ff8610ecc565b5b8135611009848260208601610fa2565b91505092915050565b6000806040838503121561102957611028610e37565b5b600061103785828601610e8a565b925050602083013567ffffffffffffffff81111561105857611057610e3c565b5b61106485828601610fe4565b9150509250929050565b6000819050919050565b6110818161106e565b82525050565b600060208201905061109c6000830184611078565b92915050565b6110ab81610e61565b82525050565b60006020820190506110c660008301846110a2565b92915050565b6000819050919050565b6110df816110cc565b82525050565b60006020820190506110fa60008301846110d6565b92915050565b611109816110cc565b811461111457600080fd5b50565b60008135905061112681611100565b92915050565b60006020828403121561114257611141610e37565b5b600061115084828501611117565b91505092915050565b600082825260208201905092915050565b7f46756e6374696f6e206d7573742062652063616c6c6564207468726f7567682060008201527f64656c656761746563616c6c0000000000000000000000000000000000000000602082015250565b60006111c6602c83611159565b91506111d18261116a565b604082019050919050565b600060208201905081810360008301526111f5816111b9565b9050919050565b7f46756e6374696f6e206d7573742062652063616c6c6564207468726f7567682060008201527f6163746976652070726f78790000000000000000000000000000000000000000602082015250565b6000611258602c83611159565b9150611263826111fc565b604082019050919050565b600060208201905081810360008301526112878161124b565b9050919050565b7f555550535570677261646561626c653a206d757374206e6f742062652063616c60008201527f6c6564207468726f7567682064656c656761746563616c6c0000000000000000602082015250565b60006112ea603883611159565b91506112f58261128e565b604082019050919050565b60006020820190508181036000830152611319816112dd565b9050919050565b7f4f776e61626c653a206e6577206f776e657220697320746865207a65726f206160008201527f6464726573730000000000000000000000000000000000000000000000000000602082015250565b600061137c602683611159565b915061138782611320565b604082019050919050565b600060208201905081810360008301526113ab8161136f565b9050919050565b7f496e697469616c697a61626c653a20636f6e747261637420697320616c72656160008201527f647920696e697469616c697a6564000000000000000000000000000000000000602082015250565b600061140e602e83611159565b9150611419826113b2565b604082019050919050565b6000602082019050818103600083015261143d81611401565b9050919050565b6000819050919050565b600060ff82169050919050565b6000819050919050565b600061148061147b61147684611444565b61145b565b61144e565b9050919050565b61149081611465565b82525050565b60006020820190506114ab6000830184611487565b92915050565b6114ba8161106e565b81146114c557600080fd5b50565b6000815190506114d7816114b1565b92915050565b6000602082840312156114f3576114f2610e37565b5b6000611501848285016114c8565b91505092915050565b7f45524331393637557067726164653a206e657720696d706c656d656e7461746960008201527f6f6e206973206e6f742055555053000000000000000000000000000000000000602082015250565b6000611566602e83611159565b91506115718261150a565b604082019050919050565b6000602082019050818103600083015261159581611559565b9050919050565b7f45524331393637557067726164653a20756e737570706f727465642070726f7860008201527f6961626c65555549440000000000000000000000000000000000000000000000602082015250565b60006115f8602983611159565b91506116038261159c565b604082019050919050565b60006020820190508181036000830152611627816115eb565b9050919050565b7f4f776e61626c653a2063616c6c6572206973206e6f7420746865206f776e6572600082015250565b6000611664602083611159565b915061166f8261162e565b602082019050919050565b6000602082019050818103600083015261169381611657565b9050919050565b7f496e697469616c697a61626c653a20636f6e7472616374206973206e6f74206960008201527f6e697469616c697a696e67000000000000000000000000000000000000000000602082015250565b60006116f6602b83611159565b91506117018261169a565b604082019050919050565b60006020820190508181036000830152611725816116e9565b9050919050565b7f455243313936373a206e657720696d706c656d656e746174696f6e206973206e60008201527f6f74206120636f6e747261637400000000000000000000000000000000000000602082015250565b6000611788602d83611159565b91506117938261172c565b604082019050919050565b600060208201905081810360008301526117b78161177b565b9050919050565b7f416464726573733a2064656c65676174652063616c6c20746f206e6f6e2d636f60008201527f6e74726163740000000000000000000000000000000000000000000000000000602082015250565b600061181a602683611159565b9150611825826117be565b604082019050919050565b600060208201905081810360008301526118498161180d565b9050919050565b600081519050919050565b600081905092915050565b60005b83811015611884578082015181840152602081019050611869565b83811115611893576000848401525b50505050565b60006118a482611850565b6118ae818561185b565b93506118be818560208601611866565b80840191505092915050565b60006118d68284611899565b915081905092915050565b600081519050919050565b60006118f7826118e1565b6119018185611159565b9350611911818560208601611866565b61191a81610ed6565b840191505092915050565b6000602082019050818103600083015261193f81846118ec565b90509291505056fe416464726573733a206c6f772d6c6576656c2064656c65676174652063616c6c206661696c6564a26469706673582212203f68172535d1a1bb71fabdf2e595fbeff5f31afeaf3d583b1c847a06dbe565d664736f6c634300080e0033",
  "immutableReferences": {
    "702": [
      {
        "length": 32,
        "start": 531
      },
      {
        "length": 32,
        "start": 673
      },
      {
        "length": 32,
        "start": 923
      },
      {
        "length": 32,
        "start": 1065
      },
      {
        "length": 32,
        "start": 1241
      }
    ]
  },
  "source": "// SPDX-License-Identifier: MIT\npragma solidity >=0.4.22 <0.9.0;\n\nimport \"@openzeppelin/contracts-upgradeable/proxy/utils/UUPSUpgradeable.sol\";\nimport \"@openzeppelin/contracts-upgradeable/proxy/utils/Initializable.sol\";\nimport \"@openzeppelin/contracts-upgradeable/access/OwnableUpgradeable.sol\";\n\ncontract SimpleProxyV2 is Initializable, UUPSUpgradeable, OwnableUpgradeable{\n\n  uint public something;\n  uint public somethingElse;\n\n  function initialize(uint _something) initializer public {\n    something = _something;\n    __Ownable_init();\n  }\n  function _authorizeUpgrade(address) internal override onlyOwner {}\n\n  function setVariables() public {\n    somethingElse = 86;\n  }\n\n}\n",
  "sourcePath": "/Users/opicaud/dev/blockchain/proxy/contracts/SimpleProxyV2.sol",
  "compiler": {
    "name": "solc",
    "version": "0.8.14+commit.80d49f37.Emscripten.clang"
  },
  "schemaVersion": "3.4.7",
  "updatedAt": "2022-08-03T06:53:09.574Z",
  "networkType": "ethereum",
  "devdoc": {
    "kind": "dev",
    "methods": {
      "owner()": {
        "details": "Returns the address of the current owner."
      },
      "proxiableUUID()": {
        "details": "Implementation of the ERC1822 {proxiableUUID} function. This returns the storage slot used by the implementation. It is used to validate that the this implementation remains valid after an upgrade. IMPORTANT: A proxy pointing at a proxiable contract should not be considered proxiable itself, because this risks bricking a proxy that upgrades to it, by delegating to itself until out of gas. Thus it is critical that this function revert if invoked through a proxy. This is guaranteed by the `notDelegated` modifier."
      },
      "renounceOwnership()": {
        "details": "Leaves the contract without owner. It will not be possible to call `onlyOwner` functions anymore. Can only be called by the current owner. NOTE: Renouncing ownership will leave the contract without an owner, thereby removing any functionality that is only available to the owner."
      },
      "transferOwnership(address)": {
        "details": "Transfers ownership of the contract to a new account (`newOwner`). Can only be called by the current owner."
      },
      "upgradeTo(address)": {
        "details": "Upgrade the implementation of the proxy to `newImplementation`. Calls {_authorizeUpgrade}. Emits an {Upgraded} event."
      },
      "upgradeToAndCall(address,bytes)": {
        "details": "Upgrade the implementation of the proxy to `newImplementation`, and subsequently execute the function call encoded in `data`. Calls {_authorizeUpgrade}. Emits an {Upgraded} event."
      }
    },
    "version": 1
  },
  "userdoc": {
    "kind": "user",
    "methods": {},
    "version": 1
  }
}